:100000000C9434000C945E030C9483030C94510004
:100010000C9451000C9451000C9451000C9451001C
:100020000C9451000C9451000C9451000C94B302A8
:100030000C9451000C9451000C94C3030C94510087
:100040000C9451000C9451000C9451000C945100EC
:100050000C9451000C9451000C9451000C945100DC
:100060000C9451000C94510011241FBECFEFD8E026
:10007000DEBFCDBF11E0A0E0B1E0E0EBFAE002C0EE
:1000800005900D92A230B107D9F711E0A2E0B1E0DE
:1000900001C01D92A935B107E1F70E944F050C94EC
:1000A00056050C94000081E790E00E94FB03D82FD6
:1000B00062E080E00E94F604C1E011E080E00E946E
:1000C00099048D2FCC2319F00E94530402C00E9482
:1000D0006A04C12768EC70E080E090E00E940B04A5
:1000E000EDCF80E88AB98BB180588BB964E670E0B7
:1000F00080E090E00E940B04F6CF13BE8895FFCFFE
:100100001092020110920301109205011092110148
:100110001092130110921F011092210110922D01D3
:1001200010922F0181E080933B0184E080933C0199
:1001300082E080933D0110923E0110923F011092A7
:100140004001109241018FE798E09093480180931D
:1001500047018DE790E08093A2089093A108109248
:10016000A00880E880939F08EFE9F8E01292E03859
:1001700088E0F807D9F70895809102010895DF9289
:10018000EF92FF920F931F93CF93DF93D82EE92E18
:10019000F89480910201843008F046C0E3E0F1E079
:1001A000F12C8081882329F0F3943E9684E0F812A4
:1001B000F8CF0F2D10E08EE0F89EE0011124CE5F05
:1001C000DE4F81E08983FA820E94B9036C837D83CC
:1001D0008E839F831B822DED3EEF029FF001039FD4
:1001E000F00D129FF00D1124E158F74F9F0123529B
:1001F00031093E872D87D082DF011197EC92DF0114
:1002000012971C92DF01139780E88C93B2971E928D
:10021000AE17BF07E1F78F2D0E94CE01809102013A
:100220008F5F8093020102C0FF24FA948F2DDF912B
:10023000CF911F910F91FF90EF90DF900895CF9392
:10024000DF931F92CDB7DEB79EE0899FF0011124A6
:10025000ED5FFE4F2281F894108292E0928390919C
:100260000201915090930201233021F489830E946E
:10027000420205C0213021F489830E94060289814F
:100280000F90DF91CF910C946A020F931F93CF933D
:10029000C82FF8940E94B9038B019C018EE0C89F7F
:1002A000F0011124EE5FFE4F84819581A681B78114
:1002B000081B190B2A0B3B0BB801C901CF911F91E9
:1002C0000F910895F8949EE0899FF0011124EE5F4C
:1002D000FE4F638308959EE0899FF0011124EE5F35
:1002E000FE4F83810895F894843041F09EE0899F09
:1002F000F0011124EE5FFE4F768765870895F8942C
:100300009EE0899FF0011124EE5FFE4F8585968562
:100310000895F8949EE0899FD0011124A65FBE4FF6
:1003200085E0FB0101900D928A95E1F70895F8941C
:100330009EE0899F90011124265F3E4FC9010895D8
:10034000FC012081243030F4E20FF11D61832F5F26
:10035000FC0120830895FC019081992351F0818153
:1003600022812183238122832481238391509083BE
:1003700008958FEF08951092490110924E01109246
:10038000800089E08093810088E99AE39093890056
:100390008093880082E080936F000895CF93C82FE8
:1003A000F89461E00E9462016C2F89E491E0CF91A2
:1003B0000C94A0010F931F93CF93DF931F92CDB79F
:1003C000DEB7082F10914E0119C08EE491E00E9413
:1003D000AB01682F69830E949701FC0180816981CC
:1003E000833039F48181801304C0862F0E94CE01AE
:1003F00004C08EE491E00E94A00111501111E5CFDC
:100400000F90DF91CF911F910F9108950F931F933C
:10041000CF93DF931F92CDB7DEB700914901F894D7
:1004200010E010C089E491E00E94AB01682F69835D
:100430000E946B016981813021F489E491E00E947E
:10044000A0011F5F1013EECF0F90DF91CF911F918E
:100450000F910895CF93C82FF8940E9489018C2F93
:100460000E946B01813061F463E08C2F0E94620175
:100470006C2F8EE491E00E94A001CF910C940602B3
:10048000CF9108950F931F93CF93DF931F92CDB712
:10049000DEB700914E01F89410E010C08EE491E0B8
:1004A0000E94AB01682F69830E946B0169818330D0
:1004B00021F48EE491E00E94A0011F5F1013EECFA3
:1004C0000F90DF91CF911F910F9108950E94CE015F
:1004D0000C9442020F931F93CF93DF931F92CDB7DB
:1004E000DEB7082FF89410914E0119C08EE491E008
:1004F0000E94AB01682F69830E949701FC018081F3
:100500006981823039F48181801304C0862F0E9472
:10051000CE0104C08EE491E00E94A001115011119F
:10052000E5CF0F90DF91CF911F910F910895F8942F
:10053000E1E8F0E0108287E99AE3909385008093E8
:1005400084001092800089E0808388E99AE3909388
:1005500089008093880082E080936F0078940895EA
:100560008091000108950F920FB6F8940F921F9298
:1005700011242F923F924F925F926F927F928F92AF
:100580009F92AF92BF92CF92DF92EF92FF920F9322
:100590001F932F933F934F935F936F937F938F930B
:1005A0009F93AF93BF93CF93DF93EF93FF936DB779
:1005B0007EB770935401609353018FEF98E09EBF14
:1005C0008DBF809100010E9473010E94B9036B01ED
:1005D0007C0110928100809100010E946B018130AA
:1005E00021F4809100010E94CE01C0914E011EC0F5
:1005F0008EE491E00E94AB01D82F0E949701FC018C
:100600008081813069F44181528163817481C41693
:10061000D506E606F70620F08D2F0E94CE0105C014
:100620006D2F8EE491E00E94A001C150C111E0CF76
:1006300080914901882339F089E491E00E94AB015F
:100640008093000103C084E0809300011092800039
:1006500089E08093810088E99AE3909389008093F0
:10066000880082E080936F00809100010E947F01EA
:100670009C019EBF8DBFFF91EF91DF91CF91BF9104
:10068000AF919F918F917F916F915F914F913F912A
:100690002F911F910F91FF90EF90DF90CF90BF901F
:1006A000AF909F908F907F906F905F904F903F9012
:1006B0002F901F900F900FBE0F9018951F920F92C2
:1006C0000FB60F9211242F933F934F935F936F9325
:1006D0007F938F939F93AF93BF93EF93FF9380E0AC
:1006E0000E94DA01FF91EF91BF91AF919F918F919D
:1006F0007F916F915F914F913F912F910F900FBE1E
:100700000F901F9018951F920F920FB60F92112401
:100710002F933F934F935F936F937F938F939F9309
:10072000AF93BF93EF93FF9381E00E94DA01FF91B3
:10073000EF91BF91AF919F918F917F916F915F9159
:100740004F913F912F910F900FBE0F901F901895D2
:1007500010925501109256011092570110925801B3
:1007600014BC8BE085BD8AEF87BD82E080936E006C
:100770000895F89460915501709156018091570148
:100780009091580108951F920F920FB60F92112465
:100790008F939F93AF93BF93809155019091560192
:1007A000A0915701B09158010196A11DB11D8093F0
:1007B000550190935601A0935701B0935801BF91F2
:1007C000AF919F918F910F900FBE0F901F90189532
:1007D000CF93DF9300D0CDB7DEB789839A830E9491
:1007E00080000E94BB010E94A80389819A810E9417
:1007F000BF007894FFCF0E94BF00789408950E94B4
:100800001F01789408950E94B0020E941F010C9469
:1008100097020C94B002CF92DF92EF92FF92CF93A7
:10082000DF9300D000D01F92CDB7DEB76B017C0103
:1008300081E089830E94B9036C0D7D1D8E1D9F1D73
:100840006A837B838C839D830E94B002BE016F5FAD
:100850007F4F0E942A020E9497020F900F900F90E4
:100860000F900F90DF91CF91FF90EF90DF90CF909E
:100870000895CF93DF9300D000D01F92CDB7DEB79D
:100880008FEF89830E94B002BE016F5F7F4F0E948D
:100890002A020E9497020F900F900F900F900F90D6
:1008A000DF91CF910895CF93DF9300D000D01F92B6
:1008B000CDB7DEB79FEF9983BE016F5F7F4F0E9478
:1008C0002A0278940F900F900F900F900F90DF9165
:1008D000CF910895CF93C82F0E946B01833019F4F4
:1008E0008C2F0E9466027894CF910895CF93DF9366
:1008F00000D000D01F92CDB7DEB792E099838A83F3
:100900000E94B002BE016F5F7F4F0E942A020E94C8
:1009100097020F900F900F900F900F90DF91CF9153
:1009200008950E94B0020E944501789408950C94A5
:100930009702CF93DF9300D000D01F92CDB7DEB7E0
:1009400093E099838A830E94B002BE016F5F7F4F5C
:100950000E942A020E9497020F900F900F900F9012
:100960000F90DF91CF910895FC016083118208956B
:10097000CF93DF93EC01F894888187FD02C081500A
:10098000888388818F3F79F40E940904998194308B
:1009900030F4FE01E90FF11D82839F5F9983DF919F
:1009A000CF910C943904DF91CF910895FC01F89414
:1009B00080818F5F808387FD17C091819923A1F08B
:1009C000828120E030E008C0DF01A20FB31F129641
:1009D0004C91129711964C932F5F3F4F2917A0F31C
:1009E000915091830E946A0478940895882321F09D
:1009F000813009F04AC025C0613051F028F06230E2
:100A0000C9F06330E1F40DC0809169008C7F15C09E
:100A1000809169008D7F8093690080916900816079
:100A20000CC0809169008E7F80936900809169007D
:100A3000826003C080916900836080936900E89AB6
:100A40000895613051F028F06230C9F06330E1F46C
:100A50000DC080916900837F15C080916900877FF8
:100A6000809369008091690084600CC08091690066
:100A70008B7F8093690080916900886003C08091BA
:100A800069008C6080936900E99A0895882319F0C1
:100A9000813021F402C0E8980895E998089583E52B
:100AA00090E00E94E80380E090E00895F894FFCF82
:020AB000FF0045
:00000001FF
