:100000000C9434000C9451000C9451000C94510049
:100010000C9451000C9451000C9451000C9451001C
:100020000C9451000C9451000C9451000C94260334
:100030000C9451000C9451000C94F1030C94510059
:100040000C9451000C9451000C9451000C945100EC
:100050000C9451000C9451000C9451000C945100DC
:100060000C9451000C94510011241FBECFEFD8E026
:10007000DEBFCDBF11E0A0E0B1E0E0E3F8E002C0F8
:1000800005900D92A230B107D9F711E0A2E0B1E0DE
:1000900001C01D92AD35B107E1F70E948F000C94AD
:1000A00016040C94000091E094B915B82FEF33EDCD
:1000B00040E3215030404040E1F700C0000085B1EE
:1000C000892785B981E00E9443010E940A030895AF
:1000D000DF93CF9300D000D00F92CDB7DEB780E88A
:1000E0008AB91BB883E590E00E94DC0082E0898336
:1000F00081E08A8380E0BE016F5F7F4F0E9494029F
:100100000E940A038FEF91EEA4E081509040A0403E
:10011000E1F700C000008BB180588BB9F3CF0E948B
:100120009D000E9448020E94D60388E690E00E944B
:10013000DC007894FFCF7894FECF109202011092E9
:1001400003011092050110921101109213011092F7
:100150001F011092210110922D0110922F0181E0B8
:1001600080933B0184E080933C0182E080933D01D9
:1001700010923E0110923F011092400110924101F5
:100180008FE798E090934801809347018BE990E0D6
:100190008093A2089093A1081092A00880E8809311
:1001A0009F08EFE9F8E0129288E0E038F807D9F705
:1001B0000895809102010895DF92EF92FF920F93CC
:1001C0001F93CF93DF93D82EE92EF89480910201EC
:1001D000843008F04DC0E3E0F1E0FF248081882303
:1001E00029F0F3943E968F2D8430C1F70F2D10E047
:1001F000C801880F991FEC0123E0CC0FDD1F2A9561
:10020000E1F7C81BD90BCE5FDE4F81E08983FA820C
:100210000E94E7036C837D838E839F831B822DED79
:100220003EEF029FC001039F900D129F900D11247D
:10023000FC01E158F74F9F01235230403E872D8744
:10024000D082E2921292319720E82083FC01E45898
:10025000F74F835A974F1292E817F907E1F78F2D5E
:100260000E946302809102018F5F8093020102C0AD
:10027000FF24FA948F2DDF91CF911F910F91FF9062
:10028000EF90DF900895DF93CF930F92CDB7DEB755
:10029000282F30E0220F331FF901A3E0EE0FFF1FDC
:1002A000AA95E1F7E21BF30BEE5FFE4F4381F89452
:1002B000282F30E0220F331FF90173E0EE0FFF1FEC
:1002C0007A95E1F7E21BF30BEE5FFE4F1182282FC8
:1002D00030E0220F331FF90153E0EE0FFF1F5A9554
:1002E000E1F7E21BF30BEE5FFE4F92E093839091F8
:1002F0000201915090930201433021F489830E94BE
:10030000B40205C0413021F489830E9470028981C2
:100310000E94DD020F90CF91DF9108951F93182F57
:10032000F8940E94E7039B01AC01612F70E0660F17
:10033000771FFB0113E0EE0FFF1F1A95E1F7E61B95
:10034000F70BEE5FFE4F84819581A681B781281B54
:10035000390B4A0B5B0BB901CA011F910895F89440
:10036000282F30E0220F331FF90193E0EE0FFF1F1B
:100370009A95E1F7E21BF30BEE5FFE4F638308955E
:10038000282F30E0220F331FF90153E0EE0FFF1F3B
:100390005A95E1F7E21BF30BEE5FFE4F8381089560
:1003A000F894843081F0282F30E0220F331FF901B8
:1003B000A3E0EE0FFF1FAA95E1F7E21BF30BEE5F40
:1003C000FE4F768765870895F894282F30E0220F36
:1003D000331FF90183E0EE0FFF1F8A95E1F7E21B5F
:1003E000F30BEE5FFE4F858596850895F894282FD0
:1003F00030E0220F331FF90143E0EE0FFF1F4A9553
:10040000E1F7E21BF30BE65FFE4F862F972FDC012F
:1004100085E00D9001928150E1F70895F894282F1E
:1004200030E0C901880F991F9C0163E0220F331F40
:100430006A95E1F7281B390B265F3E4FC9010895E5
:10044000FC018281843070F49181DF01A90FB11D1C
:1004500013966C9313979F5F9183943008F01182E9
:100460008F5F82830895FC019281992379F0208126
:10047000DF01A20FB11D13968C9113972F5F20837C
:10048000243008F010829150928308958FEF0895E0
:1004900010925401E2E5F1E01082118210924D01B8
:1004A000EBE4F1E0108211821092800089E08093E9
:1004B000810088E99AE3909389008093880082E024
:1004C00080936F0008951F93182FF89461E00E94A5
:1004D000AF0182E591E0612F0E9420021F910895F3
:1004E0000F931F93DF93CF930F92CDB7DEB7009199
:1004F0005401F89410E010C082E591E00E943302AC
:10050000682F69830E94C0016981813021F482E5EE
:1005100091E00E9420021F5F101770F30F90CF919F
:10052000DF911F910F9108951F93CF93DF93182FA1
:10053000EB01F8940E94C001813089F4812FBE0143
:100540000E94F601812F63E00E94AF018BE491E0ED
:10055000612F0E9420020E94700281E001C080E0B1
:10056000DF91CF911F9108950F931F93DF93CF9346
:100570000F92CDB7DEB700914D01F89410E010C096
:100580008BE491E00E943302682F69830E94C001CE
:100590006981833021F48BE491E00E9420021F5F87
:1005A000101770F30F90CF91DF911F910F91089565
:1005B0000E9463020E94B40208950F931F93DF9379
:1005C000CF930F92CDB7DEB7082FF89410914D015D
:1005D00019C08BE491E00E943302682F69830E9466
:1005E0000E02FC0180816981823039F4818180179B
:1005F00021F4862F0E94630204C08BE491E00E94E4
:1006000020021150112329F70F90CF91DF911F91F4
:100610000F910895F894E1E8F0E0108287E99AE3F9
:1006200090938500809384001092800089E08083FD
:1006300088E99AE3909389008093880082E0809310
:100640006F00789408958091000108950F920FB67D
:10065000F8940F921F9211242F923F924F925F9223
:100660006F927F928F929F92AF92BF92CF92DF92C2
:10067000EF92FF920F931F932F933F934F935F93AC
:100680006F937F938F939F93AF93BF93CF93DF939A
:10069000EF93FF938DB79EB790934A0180934901E2
:1006A0008FEF98E09EBF8DBF6091490170914A0124
:1006B000809100010E94D0010E94E7037B018C0120
:1006C00010928100809100010E94C001813021F4CC
:1006D000809100010E946302D0904D011FC08BE405
:1006E00091E00E943302682F69830E940E02FC0190
:1006F00080816981813069F4218132814381548113
:10070000E216F3060407150720F0862F0E94630205
:1007100004C08BE491E00E942002DA94DD20F9F617
:1007200080915401882339F082E591E00E943302E0
:100730008093000103C084E0809300011092800048
:1007400089E08093810088E99AE3909389008093FF
:10075000880082E080936F00809100010E94E40194
:100760009C019EBF8DBFFF91EF91DF91CF91BF9113
:10077000AF919F918F917F916F915F914F913F9139
:100780002F911F910F91FF90EF90DF90CF90BF902E
:10079000AF909F908F907F906F905F904F903F9021
:1007A0002F901F900F900FBE0F9018951092590127
:1007B00010925A0110925B0110925C0114BC8BE004
:1007C00085BD8AEF87BD82E080936E000895F8941E
:1007D0006091590170915A0180915B0190915C0187
:1007E00008951F920F920FB60F9211248F939F932B
:1007F000AF93BF938091590190915A01A0915B01F1
:10080000B0915C010196A11DB11D80935901909397
:100810005A01A0935B01B0935C01BF91AF919F918E
:100820008F910F900FBE0F901F901895F894FFCFE7
:02083000FF00C7
:00000001FF
